{
  "contractName": "ApproveOrder",
  "abi": [
    {
      "constant": true,
      "inputs": [],
      "name": "orders",
      "outputs": [
        {
          "name": "",
          "type": "uint256"
        }
      ],
      "payable": false,
      "stateMutability": "view",
      "type": "function"
    },
    {
      "constant": true,
      "inputs": [
        {
          "name": "",
          "type": "uint256"
        }
      ],
      "name": "wholesaleorder",
      "outputs": [
        {
          "name": "order_id",
          "type": "uint256"
        },
        {
          "name": "manufacturer_id",
          "type": "uint256"
        },
        {
          "name": "wholesaler_id",
          "type": "uint256"
        },
        {
          "name": "count",
          "type": "uint256"
        },
        {
          "name": "hash",
          "type": "string"
        }
      ],
      "payable": false,
      "stateMutability": "view",
      "type": "function"
    },
    {
      "constant": false,
      "inputs": [
        {
          "name": "order_id",
          "type": "uint256"
        },
        {
          "name": "manufacturer_id",
          "type": "uint256"
        },
        {
          "name": "wholesaler_id",
          "type": "uint256"
        },
        {
          "name": "count",
          "type": "uint256"
        },
        {
          "name": "hash",
          "type": "string"
        }
      ],
      "name": "addOrder",
      "outputs": [],
      "payable": false,
      "stateMutability": "nonpayable",
      "type": "function"
    }
  ],
  "bytecode": "0x608060405234801561001057600080fd5b5061044b806100206000396000f3fe608060405234801561001057600080fd5b50600436106100415760003560e01c80634fb764c91461004657806356daedf514610064578063a27dcfb914610127575b600080fd5b61004e61020a565b6040518082815260200191505060405180910390f35b6100906004803603602081101561007a57600080fd5b8101908080359060200190929190505050610210565b6040518086815260200185815260200184815260200183815260200180602001828103825283818151815260200191508051906020019080838360005b838110156100e85780820151818401526020810190506100cd565b50505050905090810190601f1680156101155780820380516001836020036101000a031916815260200191505b50965050505050505060405180910390f35b610208600480360360a081101561013d57600080fd5b81019080803590602001909291908035906020019092919080359060200190929190803590602001909291908035906020019064010000000081111561018257600080fd5b82018360208201111561019457600080fd5b803590602001918460018302840111640100000000831117156101b657600080fd5b91908080601f016020809104026020016040519081016040528093929190818152602001838380828437600081840152601f19601f8201169050808301925050505050505091929192905050506102de565b005b60015481565b6000602052806000526040600020600091509050806000015490806001015490806002015490806003015490806004018054600181600116156101000203166002900480601f0160208091040260200160405190810160405280929190818152602001828054600181600116156101000203166002900480156102d45780601f106102a9576101008083540402835291602001916102d4565b820191906000526020600020905b8154815290600101906020018083116102b757829003601f168201915b5050505050905085565b6001600081548092919060010191905055506040518060a0016040528086815260200185815260200184815260200183815260200182815250600080600154815260200190815260200160002060008201518160000155602082015181600101556040820151816002015560608201518160030155608082015181600401908051906020019061036f92919061037a565b509050505050505050565b828054600181600116156101000203166002900490600052602060002090601f016020900481019282601f106103bb57805160ff19168380011785556103e9565b828001600101855582156103e9579182015b828111156103e85782518255916020019190600101906103cd565b5b5090506103f691906103fa565b5090565b61041c91905b80821115610418576000816000905550600101610400565b5090565b9056fea165627a7a72305820e793883f919927440b5503b41ea1e5b4cbd6580f1da51fc88215992d1954afeb0029",
  "source": "pragma solidity 0.5.8;\r\n\r\ncontract ApproveOrder{\r\n\r\n    struct Wholesalerorderdetails{  \r\n        uint order_id;\r\n        uint manufacturer_id;\r\n        uint wholesaler_id;\r\n        uint count;\r\n        string hash;\r\n    }\r\n    \r\n    mapping (uint => Wholesalerorderdetails) public wholesaleorder;\r\n    uint public orders;\r\n  \r\n    function addOrder(uint order_id, uint manufacturer_id, uint wholesaler_id, uint count, string memory hash) public {\r\n        orders++;\r\n        wholesaleorder[orders] = Wholesalerorderdetails(order_id, manufacturer_id, wholesaler_id, count, hash);\r\n    }\r\n    \r\n    \r\n    \r\n    \r\n} ",
  "sourcePath": "C:/wamp64/www/BE-main/contracts/ApproveOrder.sol",
  "compiler": {
    "name": "solc",
    "version": "0.5.8+commit.23d335f2.Emscripten.clang"
  },
  "schemaVersion": "3.0.16",
  "updatedAt": "2020-02-07T07:47:39.584Z",
  "devdoc": {
    "methods": {}
  },
  "userdoc": {
    "methods": {}
  }
}