{
  "contractName": "ApproveRetailerOrder",
  "abi": [
    {
      "constant": true,
      "inputs": [],
      "name": "orders",
      "outputs": [
        {
          "name": "",
          "type": "uint256"
        }
      ],
      "payable": false,
      "stateMutability": "view",
      "type": "function"
    },
    {
      "constant": true,
      "inputs": [
        {
          "name": "",
          "type": "uint256"
        }
      ],
      "name": "retailorder",
      "outputs": [
        {
          "name": "order_id",
          "type": "uint256"
        },
        {
          "name": "manufacturer_id",
          "type": "uint256"
        },
        {
          "name": "wholesaler_id",
          "type": "uint256"
        },
        {
          "name": "retailer_id",
          "type": "uint256"
        },
        {
          "name": "count",
          "type": "uint256"
        },
        {
          "name": "hash",
          "type": "string"
        }
      ],
      "payable": false,
      "stateMutability": "view",
      "type": "function"
    },
    {
      "constant": false,
      "inputs": [
        {
          "name": "order_id",
          "type": "uint256"
        },
        {
          "name": "manufacturer_id",
          "type": "uint256"
        },
        {
          "name": "wholesaler_id",
          "type": "uint256"
        },
        {
          "name": "retailer_id",
          "type": "uint256"
        },
        {
          "name": "count",
          "type": "uint256"
        },
        {
          "name": "hash",
          "type": "string"
        }
      ],
      "name": "addOrder",
      "outputs": [],
      "payable": false,
      "stateMutability": "nonpayable",
      "type": "function"
    }
  ],
  "bytecode": "0x608060405234801561001057600080fd5b50610473806100206000396000f3fe608060405234801561001057600080fd5b50600436106100415760003560e01c8063370fa674146100465780634fb764c914610133578063f18433e014610151575b600080fd5b610131600480360360c081101561005c57600080fd5b810190808035906020019092919080359060200190929190803590602001909291908035906020019092919080359060200190929190803590602001906401000000008111156100ab57600080fd5b8201836020820111156100bd57600080fd5b803590602001918460018302840111640100000000831117156100df57600080fd5b91908080601f016020809104026020016040519081016040528093929190818152602001838380828437600081840152601f19601f82011690508083019250505050505050919291929050505061021b565b005b61013b6102c8565b6040518082815260200191505060405180910390f35b61017d6004803603602081101561016757600080fd5b81019080803590602001909291905050506102ce565b6040518087815260200186815260200185815260200184815260200183815260200180602001828103825283818151815260200191508051906020019080838360005b838110156101db5780820151818401526020810190506101c0565b50505050905090810190601f1680156102085780820380516001836020036101000a031916815260200191505b5097505050505050505060405180910390f35b6001600081548092919060010191905055506040518060c00160405280878152602001868152602001858152602001848152602001838152602001828152506000806001548152602001908152602001600020600082015181600001556020820151816001015560408201518160020155606082015181600301556080820151816004015560a08201518160050190805190602001906102bc9291906103a2565b50905050505050505050565b60015481565b6000602052806000526040600020600091509050806000015490806001015490806002015490806003015490806004015490806005018054600181600116156101000203166002900480601f0160208091040260200160405190810160405280929190818152602001828054600181600116156101000203166002900480156103985780601f1061036d57610100808354040283529160200191610398565b820191906000526020600020905b81548152906001019060200180831161037b57829003601f168201915b5050505050905086565b828054600181600116156101000203166002900490600052602060002090601f016020900481019282601f106103e357805160ff1916838001178555610411565b82800160010185558215610411579182015b828111156104105782518255916020019190600101906103f5565b5b50905061041e9190610422565b5090565b61044491905b80821115610440576000816000905550600101610428565b5090565b9056fea165627a7a7230582000bd7f39a3217ae2110c00bbcc22f51e0fc72cc5548ed744445772fa5c57b7df0029",
  "source": "pragma solidity 0.5.8;\r\n\r\ncontract ApproveRetailerOrder{\r\n\r\n    struct Retailerorderdetails{\r\n        uint order_id;\r\n        uint manufacturer_id;\r\n        uint wholesaler_id;\r\n        uint retailer_id;\r\n        uint count;\r\n        string hash;\r\n    }\r\n    \r\n    mapping (uint => Retailerorderdetails) public retailorder;\r\n    uint public orders;\r\n  \r\n    function addOrder(uint order_id, uint manufacturer_id, uint wholesaler_id, uint retailer_id, uint count, string memory hash) public {\r\n        orders++;\r\n        retailorder[orders] = Retailerorderdetails(order_id, manufacturer_id, wholesaler_id, retailer_id, count, hash);\r\n    }\r\n    \r\n    \r\n    \r\n    \r\n} ",
  "sourcePath": "C:/wamp64/www/BE-main/contracts/ApproveRetailerOrder.sol",
  "compiler": {
    "name": "solc",
    "version": "0.5.8+commit.23d335f2.Emscripten.clang"
  },
  "schemaVersion": "3.0.16",
  "updatedAt": "2020-02-07T07:47:39.589Z",
  "devdoc": {
    "methods": {}
  },
  "userdoc": {
    "methods": {}
  }
}